:100000000C94C8050C94F0050C94F0050C94F005C4
:100010000C94F0050C94F0050C94F0050C94F0058C
:100020000C94F0050C94F0050C94F0050C94F0057C
:100030000C94F0050C94F0050C94F0050C94F0056C
:100040000C940A250C94F0050C94D8240C94B2243A
:100050000C94F0050C94F0050C94F0050C94F0054C
:100060000C94F0050C94F0052D004578697420740B
:1000700072696767657265642100526573657420F3
:1000800073657474696E67732074726967676572EB
:10009000656421004F4646004F4E00456E61626C1C
:1000A000652073656E736F722031206973206E6FE7
:1000B000773A0053656E736F722031206C696D69F9
:1000C00074206973206E6F773A00576174657269A6
:1000D0006E672074696D65206973206E6F773A00D2
:1000E00048756D696469747920636865636B20691C
:1000F0006E74657276616C206973206E6F773A005A
:100100004D61782074696D6520696E7465727661E1
:100110006C206973206E6F773A004D696E207469A8
:100120006D6520696E74657276616C206973206EEE
:100130006F773A004F4646004F4E00456E61626C45
:10014000652073656E736F722032206973206E6F45
:10015000773A0053656E736F722032206C696D6957
:1001600074206973206E6F773A0057617465726905
:100170006E672074696D65206973206E6F773A0031
:1001800048756D696469747920636865636B20697B
:100190006E74657276616C206973206E6F773A00B9
:1001A0004D61782074696D6520696E746572766141
:1001B0006C206973206E6F773A004D696E20746908
:1001C0006D6520696E74657276616C206973206E4E
:1001D0006F773A004F4646004F4E00456E61626CA5
:1001E000652073656E736F722033206973206E6FA4
:1001F000773A0053656E736F722033206C696D69B6
:1002000074206973206E6F773A0057617465726964
:100210006E672074696D65206973206E6F773A0090
:1002200048756D696469747920636865636B2069DA
:100230006E74657276616C206973206E6F773A0018
:100240004D61782074696D6520696E7465727661A0
:100250006C206973206E6F773A004D696E20746967
:100260006D6520696E74657276616C206973206EAD
:100270006F773A0053656E736F7220312064727924
:10028000206973206E6F773A0053656E736F72202A
:100290003120776574206973206E6F773A0053655B
:1002A0006E736F72203220647279206973206E6FD2
:1002B000773A0053656E736F722032207765742031
:1002C0006973206E6F773A0053656E736F722033D7
:1002D00020647279206973206E6F773A0053656EDF
:1002E000736F72203320776574206973206E6F7787
:1002F0003A004F55545441204D454D21003A2000BD
:100300002D2D2D20005D203F007374720063686105
:1003100072006E756D00302D310029205B002028A1
:10032000003A004E4F204954454D20572F49442054
:100330000043616E27742066696E642061206D65DC
:100340006E75206974656D3F3F2000703A6E6700DE
:100350006D3A757372006D3A70676D0071756974EE
:10036000002E2E003F002028004552524F523A20C6
:10037000002A2A2A2A20547261636B656420566120
:100380006C756573202A2A2A2A00556E6B6E6F776A
:100390006E2074797065002A2A2A004D61696E20EA
:1003A0004D656E7500544F5000000000002400277A
:1003B000002A0000000000250028002B000404048F
:1003C00004040404040202020202020303030303FE
:1003D00003010204081020408001020408102001DB
:1003E00002040810200000000800020100000304BD
:1003F00007000000000000000053656E736F72205C
:10040000332076616C75657320696E206169722096
:10041000616E642077617465720043616C69627219
:100420006174652073656E736F7220330053656E5F
:10043000736F7220322076616C75657320696E204F
:1004400061697220616E6420776174657200436136
:100450006C6962726174652073656E736F722032AD
:100460000053656E736F7220312076616C75657311
:1004700020696E2061697220616E64207761746505
:10048000720053656E736F7220312063616C696214
:10049000726174696F6E0043616C69627261746548
:1004A0002068756D69646974792073656E736F7205
:1004B00020330043616C6962726174652073656EFC
:1004C000736F7220330043616C69627261746520DE
:1004D00068756D69646974792073656E736F7220D5
:1004E000320043616C6962726174652073656E737A
:1004F0006F7220320043616C6962726174652068BA
:10050000756D69646974792073656E736F722031DB
:100510000043616C6962726174652073656E736F0C
:10052000722031004D6561737572652072617720AC
:1005300076616C75657320696E2061697220616EE9
:10054000642077617465720043616C6962726174E2
:10055000696F6E00526573657420616C6C20736501
:100560007474696E677320746F2064656661756C5E
:1005700074730052657365742073657474696E6773
:10058000730053656E736F7220330053656E736F23
:100590007220320053656E736F72203100436F75A5
:1005A0006C64206E6F7420616464206974656D3FB3
:1005B00000457869740043616C69627261746520FA
:1005C00068756D69646974792073656E736F727391
:1005D0000043616C6962726174696F6E00436F758C
:1005E0006C64206E6F7420637265617465206D6544
:1005F0006E753F0053657474696E6773005665725B
:1006000079206261646E65737320696E2073457230
:1006100069414C756921310065613635373962644D
:1006200031336637343837613961363833313430F5
:1006300030373766666161356F6578423357704B86
:100640004B4300204175746F576174657265722069
:100650000D0A0050726F626C656D20647572696E70
:100660006720736574757000556E7265636F676E91
:10067000697A6564207265717565737400455252BC
:10068000005468616E6B7320666F72207573696EBB
:10069000672053657269616C554921003F065B4FC5
:1006A000666D7D077F6F777C395E79710040437599
:1006B0007272656E742028726177292068756D6981
:1006C000646974792072656164696E670053656E50
:1006D000736F72330043757272656E742028726195
:1006E00077292068756D6964697479207265616421
:1006F000696E670053656E736F7232004375727274
:10070000656E742028726177292068756D69646947
:1007100074792072656164696E670053656E736FEA
:1007200072310072617748756D3300726177487578
:100730006D320072617748756D31005365636F6E7D
:100740006473206265747765656E2068756D696491
:1007500069747920636865636B730048756D6964BB
:1007600069747920636865636B20696E746572765D
:10077000616C005365636F6E6473206265747765A6
:10078000656E2068756D6964697479206368656356
:100790006B730048756D696469747920636865637B
:1007A0006B20696E74657276616C005365636F6E61
:1007B0006473206265747765656E2068756D696421
:1007C00069747920636865636B730048756D69644B
:1007D00069747920636865636B20696E74657276ED
:1007E000616C0048756D69646974792076616C7517
:1007F0006520696E2077617465720053656E736F52
:10080000722033207765740048756D696469747966
:100810002076616C756520696E2061697200536590
:100820006E736F722033206472790048756D69644D
:100830006974792076616C756520696E20776174C2
:1008400065720053656E736F722032207765740095
:1008500048756D69646974792076616C7565206985
:100860006E206169720053656E736F72203220646E
:1008700072790048756D69646974792076616C7568
:100880006520696E2077617465720053656E736FC1
:10089000722031207765740048756D6964697479D8
:1008A0002076616C756520696E2061697200536500
:1008B0006E736F722031206472790053686F7274A6
:1008C0006573742074696D6520746F207761697435
:1008D0002028486F75727329004D696E2074696D08
:1008E0006520696E74657276616C004C6F6E676529
:1008F00073742074696D6520746F2077616974204A
:1009000028486F75727329004D61782074696D6590
:1009100020696E74657276616C005365636F6E64F6
:100920007320746F206B6565702077617465722029
:10093000666C6F77696E67005761746572696E6780
:100940002074696D650048756D6964697479206CFF
:10095000696D697420666F722073656E736F7220A3
:10096000330053656E736F722033206C696D697448
:1009700000456E61626C652073656E736F72203323
:100980000053686F72746573742074696D652074A8
:100990006F20776169742028486F75727329004D44
:1009A000696E2074696D6520696E74657276616C1C
:1009B000004C6F6E676573742074696D6520746F89
:1009C00020776169742028486F75727329004D6122
:1009D000782074696D6520696E74657276616C004B
:1009E0005365636F6E647320746F206B6565702050
:1009F000776174657220666C6F77696E6700576106
:100A0000746572696E672074696D650048756D69FB
:100A100064697479206C696D697420666F722073E3
:100A2000656E736F7220320053656E736F72203281
:100A3000206C696D697400456E61626C6520736538
:100A40006E736F7220320053686F72746573742016
:100A500074696D6520746F20776169742028486F10
:100A600075727329004D696E2074696D6520696E19
:100A700074657276616C004C6F6E67657374207478
:100A8000696D6520746F20776169742028486F75DF
:100A9000727329004D61782074696D6520696E74E8
:100AA000657276616C005365636F6E647320746F5A
:100AB000206B65657020776174657220666C6F7756
:100AC000696E67005761746572696E672074696D3D
:100AD000650048756D6964697479206C696D697425
:100AE00020666F722073656E736F722031005365DC
:100AF0006E736F722031206C696D697400456E6190
:100B0000626C652073656E736F72203100000000A7
:100B100000000000000000000000000000000000D5
:100B2000000000000000000000000000000086221D
:100B30007E6DD24620290B2170104080523F065B0B
:100B40004F666D7D077F6F090D614843D35F777CEA
:100B5000395E79713D76301E753815373F736B33CA
:100B60006D783E3E2A766E5B39640F2308025F7C07
:100B7000585E7B716F74100C753014545C73675041
:100B80006D781C1C14766E5B463070010000952554
:100B900011241FBECFEFD8E0DEBFCDBF13E0A0E031
:100BA000B1E0E4EAFCE602C005900D92A03CB1077A
:100BB000D9F727E0A0ECB3E001C01D92A633B2073D
:100BC000E1F715E0C8ECD5E004C02197FE010E94D2
:100BD0003E34C73CD107C9F70E946D290C945036AA
:100BE0000C9400000895DC01ED91FC910190F081DE
:100BF000E02D0994DB0114964D915C9115976D9150
:100C00007C91DC01ED91FC910280F381E02D09944F
:100C1000EF92FF920F931F93CF93DF938C017B0191
:100C2000D0E0C0E0F701EC0FFD1F6491662361F096
:100C3000D801ED91FC910190F081E02DC80109955A
:100C4000892B11F02196EECFCE01DF91CF911F912C
:100C50000F91FF90EF900895AF92BF92CF92DF92E5
:100C6000EF92FF920F931F93CF93DF936C017B0161
:100C70008B01040F151FEB015E01AE18BF08C017F2
:100C8000D10759F06991D601ED91FC910190F08165
:100C9000E02DC6010995892B79F7C501DF91CF9128
:100CA0001F910F91FF90EF90DF90CF90BF90AF908A
:100CB0000895FC01538D448D252F30E0842F90E062
:100CC000821B930B541710F0CF9608950197089547
:100CD000FC01918D828D981761F0A28DAE0FBF2F10
:100CE000B11D5D968C91928D9F5F9F73928F90E066
:100CF00008958FEF9FEF0895FC01918D828D9817D5
:100D000031F0828DE80FF11D858D90E008958FEF11
:100D10009FEF0895FC01918D228D892F90E0805CDA
:100D20009F4F821B91098F739927089580E196E068
:100D30000E948A0621E0892B09F420E0822F089581
:100D400080E090E0892B29F00E94960681110C9496
:100D500000000895FC01A48DA80FB92FB11DA35A5E
:100D6000BF4F2C91848D90E001968F739927848FCB
:100D7000A689B7892C93A089B1898C9183708064EE
:100D80008C93938D848D981306C00288F389E02D8F
:100D900080818F7D80830895EF92FF920F931F9340
:100DA000CF93DF93EC0181E0888F9B8D8C8D98131E
:100DB0001AC0E889F989808185FF15C09FB7F8942A
:100DC000EE89FF896083E889F98980818370806476
:100DD00080839FBF81E090E0DF91CF911F910F91C1
:100DE000FF90EF900895F62E0B8D10E00F5F1F4FD0
:100DF0000F731127E02E8C8D8E110CC00FB607FCDF
:100E0000FACFE889F989808185FFF5CFCE010E946C
:100E1000AA06F1CFEB8DEC0FFD2FF11DE35AFF4F2A
:100E2000F0829FB7F8940B8FEA89FB8980818062FA
:100E3000CFCFCF93DF93EC01888D8823B9F0AA89B7
:100E4000BB89E889F9898C9185FD03C0808186FD85
:100E50000DC00FB607FCF7CF8C9185FFF2CF8081D4
:100E600085FFEDCFCE010E94AA06E9CFDF91CF9199
:100E7000089590E0FC01EB51FC4F2491FC01EF52EE
:100E8000FC4F3491FC01E354FC4FE491EE23C9F094
:100E9000222339F0233001F1A8F4213019F1223056
:100EA00029F1F0E0EE0FFF1FED54FC4FA591B49136
:100EB0008FB7F894EC91611126C030953E233C9396
:100EC0008FBF08952730A9F02830C9F0243049F7A2
:100ED000809180008F7D03C0809180008F77809308
:100EE0008000DFCF84B58F7784BDDBCF84B58F7D65
:100EF000FBCF8091B0008F778093B000D2CF8091EC
:100F0000B0008F7DF9CF3E2BDACFCF93DF9390E007
:100F1000FC01EF52FC4F249183549C4FFC018491BF
:100F20008823D1F090E0880F991FFC01E755FC4F12
:100F3000A591B491FC01ED54FC4FC591D491611180
:100F40000EC09FB7F8948C91E22FE0958E238C937E
:100F50002881E223E8839FBFDF91CF9108958FB767
:100F6000F894EC91E22BEC938FBFF6CF3FB7F89457
:100F70008091CB039091CC03A091CD03B091CE038F
:100F800026B5A89B05C02F3F19F00196A11DB11DE4
:100F90003FBFBA2FA92F982F8827BC01CD01620F20
:100FA000711D811D911D42E0660F771F881F991FDB
:100FB0004A95D1F708958F929F92AF92BF92CF92A8
:100FC000DF92EF92FF926B017C010E94B6074B010A
:100FD0005C01C114D104E104F104B9F00E94B60728
:100FE000681979098A099B09683E73408105910552
:100FF00080F321E0C21AD108E108F10888EE880EDA
:1010000083E0981EA11CB11CE4CFFF90EF90DF900D
:10101000CF90BF90AF909F908F9008952FB7F89486
:101020006091C7037091C8038091C9039091CA036E
:101030002FBF08950F931F93CF93DF93EC010E946E
:101040000E08688779878A879B87E881F9810484FD
:10105000F585E02DCE01099597FF15C00E940E0879
:10106000088519852A853B85601B710B820B930BC4
:101070000C811D812E813F816017710782079307C4
:1010800020F38FEF9FEFDF91CF911F910F91089584
:101090001F93CF93DF93EC01162FCE010E941A0805
:1010A00097FD16C08D32910599F09C0120533109AE
:1010B0002A30310568F0112319F08E32910541F084
:1010C000E881F9810284F385E02DCE010995E5CF11
:1010D000DF91CF911F910895CF92DF92EF92FF920F
:1010E0001F93CF93DF93EC0160E00E944808FC015E
:1010F000C12CD12C760197FD39C010E0E130F1050B
:10110000D1F0ED32F105E1F1CF01C0970A9798F4E3
:10111000AAE0B0E0A70196010E9409336F01FF0F1A
:10112000EE08FF08C60ED71EE81EF91E80E3C81A97
:10113000D108E108F108E881F9810284F385E02D06
:10114000CE010995CE010E941A08FC01C0970A97AA
:10115000A8F2E130F10591F2112341F0F094E0940E
:10116000D094C094C11CD11CE11CF11CC701B60174
:10117000DF91CF911F91FF90EF90DF90CF90089576
:1011800011E0D9CF0F931F93CF93DF938C01DC0134
:10119000ED91FC910680F781E02D0995D82FC0E0F4
:1011A000CD17D1F0D801ED91FC910284F385E02DAB
:1011B0006C2FC8010995009769F0A091DB03B091ED
:1011C000DC03ED91FC91119706A4F7A5E02DBC017D
:1011D000CD010995CF5FE4CFDF91CF911F910F91A2
:1011E000089508950895089508950F931F93CF9338
:1011F000DF938C01EB01E881F9810480F581E02D1A
:10120000CB010995F8018283D583C483DF91CF9107
:101210001F910F9108950895089508950895DC0190
:101220005296ED91FC91309711F0CB01099481E039
:10123000089581E008950895EF92FF920F931F9310
:10124000CF93DF937A01C091DB03D091DC03E88177
:10125000F981008D118DDC01ED91FC910680F78103
:10126000E02D0995A701682FCE01F801DF91CF91FC
:101270001F910F91FF90EF900994DC011F96ED9163
:10128000FC91309711F0CB01099481E00895FC01A5
:10129000668708950895EF92FF920F931F93CF935F
:1012A000DF937A01C091DB03D091DC03E881F981FF
:1012B00004891589DC01ED91FC910680F781E02D10
:1012C0000995A701682FCE01F801DF91CF911F91F9
:1012D0000F91FF90EF90099408950895089508954F
:1012E000FC0146875787608B718B0895DC011E9641
:1012F0008D919C91DC01ED91FC910190F081E02DAC
:1013000009944F925F926F927F92AF92BF92CF9269
:10131000DF92EF92FF920F931F93CF93DF935A01C7
:10132000DC011E960D911C9161E0C8010E944808E5
:10133000FC0160E070E0CB01F7FD71C0412C512C45
:1013400080E8682E8FE3782EC12CD12C7601C0E086
:10135000D0E0E130F10551F1ED32F10509F43FC083
:10136000EE32F105F1F1CF01C0970A97F8F4AAE047
:10137000B0E0A70196010E9409336F01FF0FEE084C
:10138000FF08C60ED71EE81EF91EB0E3CB1AD1081F
:10139000E108F108CC2351F02DEC3CEC4CEC5DE382
:1013A000C301B2010E9406322B013C01D801ED912C
:1013B000FC910284F385E02DC8010995C8010E94C3
:1013C0001A08FC01C0970A9720F2EE32F10559F491
:1013D000CC2309F4BECFCD2FD1110BC018C0D1E062
:1013E000E5CFC1E0E3CFE130F10509F4B2CFDD2371
:1013F00041F0F094E094D094C094C11CD11CE11C45
:10140000F11CC701B6010E94A731CC2341F0C701EE
:10141000B6010E94A731A30192010E940632F50194
:10142000608371838283938381E0DF91CF911F91E9
:101430000F91FF90EF90DF90CF90BF90AF907F9093
:101440006F905F904F900895CF93DF93EA01FC0176
:10145000868597850E946C08688379838A839B833D
:1014600081E0DF91CF910895CF93DF93EA01FC01F2
:10147000868597850E946C08688379838A839B831D
:1014800081E0DF91CF9108958F929F92AF92BF92AA
:10149000CF92DF92EF92FF920F931F93CF93DF9340
:1014A000EC018A010E940E084B015C01EE85FF856C
:1014B000C480D580E680F7808E859F85DC01ED9124
:1014C000FC910284F385E02D099597FF19C00E94D5
:1014D0000E08681979098A099B096C157D058E0526
:1014E0009F0550F380E0DF91CF911F910F91FF9006
:1014F000EF90DF90CF90BF90AF909F908F90089526
:10150000F801808381E0EFCF2F923F924F925F925C
:101510006F927F928F929F92AF92BF92CF92DF9203
:10152000EF92FF920F931F93CF93DF936C015B01B8
:10153000242E922E832E0E940E082B013C0120E2C5
:10154000420E2EE4521E611C711C10E0392C0E94C8
:101550000E086415750586059705A0F5E501C10F10
:10156000D11DF12CD6011E968D919C91DC01ED913F
:10157000FC910084F185E02D0995892B09F1121564
:10158000F8F4F1101FC0F60186859785DC01ED9116
:10159000FC910284F385E02D09958883E92DF82DCF
:1015A00081919881981305C0E11018821982FF2457
:1015B000F3948E2F8319801798F31F5F2196D2CF53
:1015C000FF2029F2812FDF91CF911F910F91FF9082
:1015D000EF90DF90CF90BF90AF909F908F907F90D3
:1015E0006F905F904F903F902F900895EF920F93E0
:1015F000CF93DF9300D0CDB7DEB73AE039833DE03B
:101600003A83E22E02E09E012F5F3F4F0E94840A40
:101610000F900F90DF91CF910F91EF900895CF939E
:10162000DF93EA01FC01868597850E946C08672B91
:1016300031F081E0888381E0DF91CF9108951882B5
:10164000FACFCF93DF93EC018E859F85DC01ED917E
:10165000FC910084F185E02D0995892B51F08E8550
:101660009F85DC01ED91FC910284F385E02D0995C5
:10167000EBCFDF91CF910895CF93DF93EC018E856F
:101680009F85DC01ED91FC910084F185E02D0995A9
:10169000892BF9F08E859F85DC01ED91FC91048406
:1016A000F585E02D09958D3021F08A3011F08032DA
:1016B00081F48E859F85DC01ED91FC910284F38598
:1016C000E02D09956AE070E080E090E00E94DB0781
:1016D000D6CFDF91CF910895DC011E968D919C911C
:1016E000DC01ED91FC910284F385E02D0994DC018D
:1016F0001E968D919C91DC01ED91FC910484F58501
:10170000E02D0994CF93DF93EC018E859F85DC015A
:10171000ED91FC910084F185E02D0995892B31F143
:101720008E859F85DC01ED91FC910484F585E02D8B
:1017300009959C018E859F852D30310531F02A3029
:10174000310519F02032310541F4DC01ED91FC91B5
:101750000284F385E02D0995D8CFDC01ED91FC9151
:101760000084F185E02DDF91CF91099490E080E035
:10177000DF91CF91089590E080E008950F931F933B
:10178000CF93DF93EC018B01E881F981EE5AFF4F93
:101790000190F081E02D099569E673E08E859F85C3
:1017A0000E940806B8018E859F850E940806E88180
:1017B000F981EC5AFF4F0190F081E02DCE01DF91CD
:1017C000CF911F910F910994EF92FF920F931F9366
:1017D000CF93DF93EC017B01E881F981E05CFF4F5F
:1017E0000190F081E02D09958C01D70113966D9140
:1017F0007C918E859F850E940806080F191FE8813D
:10180000F981EC5BFF4F0190F081E02D64E070E026
:10181000CE010995080F191FD701ED91FC910680A3
:10182000F781E02D40E0BE01C7010995E881F9810B
:10183000EA5BFF4F0190F081E02D64E070E0CE01A3
:101840000995800F911FDF91CF911F910F91FF900C
:10185000EF900895EF92FF920F931F93CF93DF9332
:10186000EC018B01E881F981E85BFF4F0190F08189
:10187000E02D09957C01E881F98104A4F5A5E02D0E
:10188000B801CE0109958E0D9F1DDF91CF911F915B
:101890000F91FF90EF90089508950895EF92FF92B1
:1018A0000F931F93CF93DF937C01D62FC0E0D70116
:1018B00012968C911297C81728F50C2F10E0000F84
:1018C000111F1496ED91FC91E00FF11F8081918121
:1018D000DC01ED91FC910680F781E02D09958D13D7
:1018E0000FC0F70184819581080F191FD8018D91D0
:1018F0009C91DF91CF911F910F91FF90EF900895F0
:10190000CF5FD5CF90E080E0F4CF6EEFFC0186850D
:1019100097850E94F30581E090E008956EEFFC0149
:10192000868597850C94F3056BEAFC01868597857F
:101930000C94F3056EEFFC01868597850C94F305F6
:10194000CF92DF92EF92FF920F931F93CF93DF938B
:101950007C018B016BEFDC011E968D919C910E94A6
:10196000F305EC01F8016481D7011E968D919C91DD
:101970000E94F305C80FD91FF8016381D7011E9695
:101980008D919C910E94F305C80FD91FF701C68461
:10199000D784D801ED91FC910680F781E02DC80134
:1019A0000995682FC6010E94F305C80FD91FF801D9
:1019B000848195818330910551F46285D7011E960B
:1019C0008D919C910E94F305C80FD91F02C0099701
:1019D000A1F3CE01DF91CF911F910F91FF90EF9076
:1019E000DF90CF90089563EFFC01868597850C9476
:1019F000F3056EEFFC01868597850C94F305643042
:101A0000710561F030F46130710541F090E080E0E3
:101A100008956750710962307105C0F765EFFC01E8
:101A2000868597850C94F305EF92FF920F931F9391
:101A3000CF93DF937C018B0161EFDC011E968D91CA
:101A40009C910E94F305EC01F8016481D7011E9678
:101A50008D919C910E94F305C80FD91FF701E68470
:101A6000F784D801ED91FC910680F781E02DC80143
:101A70000995682FC7010E94F3058C0F9D1FDF9108
:101A8000CF911F910F91FF90EF900895CF92DF9229
:101A9000EF92FF920F931F93CF93DF938C017B0103
:101AA00062EFDC011E968D919C910E94F305EC0182
:101AB000F801C684D784D701ED91FC910480F581AB
:101AC000E02DC7010995682FC6010E94F305C80FD4
:101AD000D91FF7016281D8011E968D919C910E94B9
:101AE000F3058C0F9D1FDF91CF911F910F91FF90F8
:101AF000EF90DF90CF9008950F931F93CF93DF93D4
:101B00004332A0F48C01C3E2C41BD0E060E2F801D0
:101B1000868597850E94F305DF5FCD13F7CF8C2F65
:101B200090E0DF91CF911F910F91089590E080E0B8
:101B3000F8CFEF92FF920F931F93CF93DF938C0117
:101B40007B0169E0DC011E968D919C910E94F3055A
:101B5000EC01D7011496ED91FC913197E830F10535
:101B6000D0F4EB54F24F0C943E34D30DBD0DC20DA6
:101B7000CB0DD50DD50DD30DD30D6AE2F8018685B9
:101B8000978505C06EE3D8011E968D919C910E94A9
:101B9000F305C80FD91FCE01DF91CF911F910F918F
:101BA000FF90EF9008956BE2E9CF60E073E0D80119
:101BB0001E968D919C910E940806EBCF64307105B2
:101BC00091F030F46130710541F090E080E00895CB
:101BD0006750710962307105C0F769E0FC018685C4
:101BE00097850C94F3056DEF72E0FC01868597856F
:101BF0000C94080690E080E0089590E080E008955D
:101C0000FC0182810895FC018481089590E080E0C8
:101C1000089584E090E0089508950895FC0182817C
:101C20000895389A8BE891E00197F1F70895579A53
:101C30008BE891E00197F1F7089557988BE891E0D0
:101C40000197F1F7089538988BE891E00197F1F743
:101C500008950F931F93CF93C8E0082F10E080FFE3
:101C60001BC00E941D0E0E94230E0E94110EC8016F
:101C700095958795C15089F70E941D0E0E94230EED
:101C8000C9B10E94110E8C2F8095881F8827881F4C
:101C9000CF911F910F9108950E94170EE4CF0E94DB
:101CA000230E0E941D0E0E94170E0C94110ECF934E
:101CB000DF930E944F0E80E40E94290E0E94170EAF
:101CC0000E94230E0E941D0E0E944F0E80EC0E9467
:101CD000290ED0E0C0E0EC2F80912A0790912B07CD
:101CE000009721F08C0F9D1FDC01EC91F0E0ED5D81
:101CF000F84F81850E94290E2196C430D10559F7ED
:101D00000E94170E0E94230E0E941D0E0E944F0E6D
:101D10008091300790E8811198E8809127078F70B3
:101D2000892B0E94290E0E94170E0E94230E0E94EA
:101D30001D0E1092260710922807DF91CF9108956B
:101D4000DC01ED91FC918281681770F4A081B18172
:101D5000A60FB11D4C9321E030E001C0220F6A951F
:101D6000EAF78381822B83830895623108F060E172
:101D7000E62FF0E0E456F94F4491682F8AE197E0AE
:101D80000C94A00EAF92BF92CF92DF92EF92FF928F
:101D90000F931F93CF93DF93D82F7B01E0911C0704
:101DA000F0911D070190F081E02DB280C82F10E066
:101DB00000E0A12CCC24C394D12CF701E00FF11F3B
:101DC0003491332369F1CB1558F5A0911C07B091DC
:101DD0001D078D919C911197FC0122813E3209F0E3
:101DE00040C0AA2051F13FEF3C0F3217A0F4019000
:101DF000F081E02DE30FF11D208120682083A601F2
:101E000001C0440F3A95EAF7DC0113962C91139721
:101E1000242B13962C930F5F1F4F0F3F110569F66C
:101E20008C2F8D1BDF91CF911F910F91FF90EF9021
:101E3000DF90CF90BF90AF900895C21780F41496B2
:101E40008C91149740E08F3230F01296ED91FC9116
:101E50001397BE9644916C2FCD010E94A00ECF5FC8
:101E6000DACFC21790F414968C91149740E038178B
:101E700040F412964D915C911397FA01E30FF11D16
:101E800044916C2FCD010E94A00ECF5FAA24A39491
:101E9000C2CFCF93C62F682F80E00E94B50E68E6B0
:101EA00070E081E00E94C20EC43678F040E062E04B
:101EB0008AE197E00E94A00E40E063E08AE197E0AB
:101EC0000E94A00ECF910C94570E8C2F6AE00E94B6
:101ED000323496EF899FC00D112481110BC04FE35E
:101EE00062E08AE197E00E94A00E6C2F83E00E94DE
:101EF000B50EE8CF682F82E00E94B50EF6CF0C94A5
:101F0000E03428ED31E0FC01318320838481958128
:101F1000009711F00C94E034089520EE31E0FC01BC
:101F2000318320830C94810FCF93DF93EC01888160
:101F30009981009711F00E94E034198218821D8265
:101F40001C821B821A82DF91CF91089520EE32E02D
:101F5000FC013183208384819581009711F00C94DA
:101F6000E0340895CF93DF93EC010E94A60FCE01D9
:101F7000DF91CF910C94E03428EE32E0FC01318304
:101F800020830C94A60FCF93DF93EC010E94BC0F2B
:101F9000CE01DF91CF910C94E0340C94E0340297A1
:101FA0000C94CD0F0C94E034CF93DF93EC010E949E
:101FB0008D0FCE01DF91CF910C94E034CF93DF935E
:101FC000EC010E94810FCE01DF91CF910C94E0349F
:101FD0000C94E0340C94E0340C94E0340C94E03431
:101FE0000C94E03402970C94F00F0C94E0340297B8
:101FF0000C94F50F0C94E0340C94E0340C94E03421
:102000000C94E034FB0101900020E9F73197AF0117
:10201000461B570BDC01ED91FC910280F381E02D12
:1020200009948F929F92AF92BF92EF92FF920F937B
:102030001F93CF93DF93CDB7DEB7A1970FB6F89478
:10204000DEBF0FBECDBF7C01FA01CB0119A2223049
:1020500008F42AE08E010F5D1F4F822E912CB12CC7
:10206000A12CBF01A50194010E944B33F901CA01C3
:102070006A300CF5605DD8016E938D01232B242B03
:10208000252B79F790E080E0109721F0BD01C70182
:102090000E940210A1960FB6F894DEBF0FBECDBF0E
:1020A000DF91CF911F910F91FF90EF90BF90AF9074
:1020B0009F908F900895695CDECFCF92DF92EF9270
:1020C000FF920F931F93CF93DF932A30310501F5D1
:1020D0002AE077FF1DC06A017B01EC016DE20E94DE
:1020E000F3058C0144275527BA014C195D096E0987
:1020F0007F092AE0CE010E941110800F911FDF910D
:10210000CF911F910F91FF90EF90DF90CF900895A6
:10211000DF91CF911F910F91FF90EF90DF90CF90C3
:102120000C9411100F931F93CF93DF93EB01442373
:10213000C9F08C01E881F9810190F081E02DDC018A
:1021400016966C91CE010995E881F9810190F08194
:10215000E02DD80117966C91CE01DF91CF911F91A0
:102160000F910994FC0146815781052E000C660BE6
:10217000770B2AE030E0CE01DF91CF911F910F91D4
:102180000C945D10CF93DF93BC0180E196E00E9438
:102190000210EC0165E673E080E196E00E94021017
:1021A0008C0F9D1FDF91CF9108959C012F5F3F4FB2
:1021B0002130324014F40C94D43288E693E00E942B
:1021C000C21080E008952091DD033091DE032F5F7F
:1021D0003F4F3093DE032093DD034091DF035091A6
:1021E000E0034115510519F04217530734F482E911
:1021F00093E00E94C21080E00895813092401CF06C
:1022000088E693E0F6CF81E008950F931F93CF9374
:10221000DF93EC0160E20E94F3058C0165E673E058
:10222000CE010E940210800F911FDF91CF911F916C
:102230000F910895FC01868597850C940511FC018A
:10224000868597850C940511FC01868597850C94ED
:1022500005110F931F93CF93DF93EC010E940806A3
:102260008C0165E673E0CE010E940210800F911F81
:10227000DF91CF911F910F910895CF92DF92EF924E
:10228000FF920F931F93CF93DF93EC017B01E881C3
:10229000F981EE5BFF4F0190F081E02D6E5F7F4F83
:1022A000E114F10411F470E060E0CE0109958C01B5
:1022B000F701608571858E859F850E942911080F21
:1022C000191FF70182859385892BB9F0E881F9817F
:1022D000EC5BFF4F0190F081E02D61E070E0CE01FA
:1022E00009956C01F701628573858E859F850E9433
:1022F00029118C0D9D1D080F191FE881F981EA5BDA
:10230000FF4F0190F081E02D61E070E0CE01099572
:10231000800F911FDF91CF911F910F91FF90EF9050
:10232000DF90CF9008958F929F92AF92BF92CF92FD
:10233000DF92EF92FF920F931F93CF93DF93EC0105
:10234000DB011A96ED91FC911B973197EF30F10567
:1023500008F06AC1E255FE4E0C943E34F112BD11F4
:10236000BD11D311DA12D311EB110F12F612DA12DA
:10237000DA12DA1214130F13DA128E859F851E9665
:102380002C9161E3211101C060E3DF91CF911F9196
:102390000F91FF90EF90DF90CF90BF90AF909F9004
:1023A0008F900C94F3051E964D915D916D917C91EB
:1023B00051972AE030E08E859F85DF91CF911F9164
:1023C0000F91FF90EF90DF90CF90BF90AF909F90D4
:1023D0008F900C945D108E859F851E962C911E9774
:1023E00070E060E0222369F030E021503048220F95
:1023F000331F5D964D915C91240F351FF90160816B
:102400007181DF91CF911F910F91FF90EF90DF903D
:10241000CF90BF90AF909F908F900C9408060E8540
:102420001F851E96CD90DD90ED90FC905197A701F1
:102430009601C701B6010E941D3464EB73E081115F
:102440001AC046015701E894B7F82FEF3FEF4FE766
:102450005FE7C501B4010E941D3481111BC02FEF3D
:102460003FEF4FE75FE7C501B4010E94A0311816A6
:102470008CF468EB73E0C801DF91CF911F910F914D
:10248000FF90EF90DF90CF90BF90AF909F908F9094
:102490000C9402102FEF3FEF4FE75FE4C701B60146
:1024A0000E94183418161CF46CEB73E0E4CF2FEF85
:1024B0003FEF4FE75FECC701B6010E94A03187FDF7
:1024C000F3CF20E030E0A901C701B6010E94A0319E
:1024D000D0E0C0E087FF09C06DE2C8010E94F305AB
:1024E000EC01F7FAF094F7F8F0942AE037ED43EABC
:1024F0005BE3C701B6010E947D336B017C010E9442
:10250000E9334B015C010E94A5319B01AC01C7017D
:10251000B6010E947C336B017C012AE0B501A40165
:10252000C8010E941110C80FD91F6EE2C8010E9495
:10253000F305C80FD91F20E030E040E251E4C701A5
:10254000B6010E9406324B015C010E94E9336B0127
:10255000F12CE12C2AE0B701A601C8010E9411105C
:10256000C80FD91FC701B6010E94A5319B01AC015C
:10257000C501B4010E947C3320E030E040E251E428
:102580000E9406320E94E933AB0170E060E02AE06D
:10259000C8010E9411108C0F9D1FDF91CF911F91D8
:1025A0000F91FF90EF90DF90CF90BF90AF909F90F2
:1025B0008F9008951E964D915D916D917C915197EC
:1025C0002AE08E859F85DF91CF911F910F91FF901B
:1025D000EF90DF90CF90BF90AF909F908F900C9432
:1025E00011101E966C918E859F85CFCE8E859F850E
:1025F00052962D913C91232B81F0625F7F4FDF91AA
:10260000CF911F910F91FF90EF90DF90CF90BF90EF
:10261000AF909F908F900C94FA0560E2B6CE67E978
:1026200073E08E859F85EDCEE881F98106A8F7A934
:10263000E02D6AE873E0CE01099590E080E0ADCF2F
:102640004F925F926F927F92AF92BF92CF92DF9242
:10265000EF92FF920F931F93CF93DF938C01EB01C7
:102660008C819D818330910509F0C3C0D801ED9123
:10267000FC91E25BFF4F0190F081E02D50E040E0E3
:10268000C80109957C01BE01C8010E949311E80EA2
:10269000F91ECA84DB84B9E0CB16D104D1F0A8F4CA
:1026A000C6010697029708F469C0C701DF91CF9170
:1026B0001F910F91FF90EF90DF90CF90BF90AF9060
:1026C0007F906F905F904F900895FEE0CF16D104F9
:1026D00061F7D801ED91FC91E25BFF4F0190F08131
:1026E000E02D50E040E0BE01C80109955C014E8933
:1026F00050E070E060E02AE0F801868597850E944E
:1027000011108A0D9B1DE80EF91EF7E0CF16D104BB
:1027100061F6D12C8F8DD81640F6D801ED91FC9141
:10272000E25BFF4F0190F081E02D50E040E0BE0100
:10273000C80109955C01F801868597854D2D50E00B
:1027400070E060E0488C598C6A8C7B8C4415550590
:10275000660577050CF04AC02D2D30E0220F331F9F
:10276000ED8DFE8DE20FF31F608171810E940806DE
:102770008A0D9B1DE80EF91ED394CCCFD801ED91A4
:10278000FC91E25BFF4F0190F081E02D50E040E0D2
:10279000BE01C80109955C014C895D896E897F89FC
:1027A0002AE030E0F801868597850E945D108A0D49
:1027B0009B1DE80EF91ED801ED91FC91E25BFF4FE5
:1027C0000190F081E02D50E040E0BE01C801099584
:1027D000E80EF91E488D598D6A8D7B8D2AE030E018
:1027E000F801868597850E945D108DCF70E060E0CE
:1027F000BDCFF12CE12C099709F057CFD801ED910D
:10280000FC91E25BFF4F0190F081E02D50E040E051
:10281000C80109957C01CC846C2DF80186859785CB
:102820000E94F305FFEFEF1AFF0A2D96D12CCD146D
:1028300009F43BCFE991F991309751F06281D801C9
:102840001E968D919C910E94F305BFEFEB1AFB0A37
:10285000D394EDCF8F929F92AF92BF92CF92DF929F
:10286000FF920F931F93CF93DF93EC018B01FB013A
:10287000668177818E859F850E9408066EE173E0F0
:102880008E859F850E940806B801CE010E94931193
:102890006AE173E08E859F850E940806F801C28474
:1028A000D384F60131978E859F85EF30F10508F0CE
:1028B00085C0E35AFB4E0C943E34D8146C146C144F
:1028C000D514D51471147114D514DB14D514D51482
:1028D000DE14DE14DB14D51466E173E00E940806F2
:1028E00019C0F80144895589668977892AE030E062
:1028F0000E945D106DE28E859F850E94F305F801B0
:10290000408D518D628D738D2AE030E08E859F85DC
:102910000E945D1065E073E08E859F850E94080629
:10292000F7E0CF16D10409F050C08E859F850E9434
:102930000511F12CF801878DF81608F046C069E002
:102940008E859F850E94F305CF2CD12CA6014F5F69
:102950005F4F052E000C660B770B2AE030E08E856A
:102960009F850E945D106AE38E859F850E94F30516
:102970008E859F854F2D50E070E060E0F801808CDF
:10298000918CA28CB38C481559056A057B05D4F44B
:10299000CC0CDD1C258D368DC20ED31EF601608158
:1029A00071810E942911F394C5CF62E173E096CF43
:1029B0006DE073E093CF69E073E090CF6FE30E9426
:1029C000F305A8CF70E060E0ECCFDF91CF911F91CD
:1029D0000F91FF90DF90CF90BF90AF909F908F901E
:1029E0000895EF92FF920F931F93CF93DF93EC0123
:1029F0007B01FB01668177818E859F850E94080699
:102A00008C01F701868197810E949731E881F981D5
:102A1000E25BFF4F0190F081E02DAC01B701CE01E8
:102A20000995080F191FF7016085718561157105FA
:102A300031F08E859F850E940806080F191FE881D6
:102A4000F981E05BFF4F0190F081E02DB701CE01ED
:102A50000995800F911FDF91CF911F910F91FF90EA
:102A6000EF900895CF92DF92EF92FF920F931F9312
:102A7000CF93DF93082F10E0F801E15FFE4FF08065
:102A800061E08F2D0E94390768EC70E080E090E0F3
:102A90000E94DB07F801E45FFE4F90819E3008F052
:102AA0009E509770906490937C0080917A0080642F
:102AB00080937A0080917A0086FDFCCF8091780027
:102AC000909179002EE1209FE001219FD00D1124EB
:102AD000C054D94FE889F98921E0258397838683FB
:102AE00068EC70E080E090E00E94DB0760E08F2DF2
:102AF0000E943907E889F98986819781EE85FF85EB
:102B0000C684D78496018C159D0544F0EC85FD851F
:102B100026853785821793070CF49C010D2C000C39
:102B2000EE08FF088EE1809FE001819FD00D112407
:102B3000C054D94F032E000C440B550B2C193D09E2
:102B40004E095F09A4E6B0E00E940933EC85FD85DB
:102B500026853785032E000C440B550B2C193D0997
:102B60004E095F090E94EA323B8B2A8BDF91CF919D
:102B70001F910F91FF90EF90DF90CF9008950F93EA
:102B80001F93CF9300EC16E0C0E08C2F0E9432150B
:102B9000F80162898C2F0E94490FCF5F025E1F4FA0
:102BA000C33099F7CF911F910F910895009711F4B9
:102BB00081E090E00C944434DF92EF92FF920F9307
:102BC0001F93CF93DF936115710549F480E0DF9186
:102BD000CF911F910F91FF90EF90DF9008958B019F
:102BE000EC018B819A81981790F135E0D32ED80EA5
:102BF0008D2D90E0880F991F0E94D6157C010097BB
:102C000029F3DB823A81E32FF0E0EE0FFF1FE80F9C
:102C1000F91F832F8D1588F08C819D81F70120E0AD
:102C2000321779F0DF01AE19BF09A80FB91F4D9116
:102C30005C91419351932F5FF3CF119211928F5F6B
:102C4000E9CF009711F00E94E034FD82EC828A8186
:102C5000282F30E0220F331FEC81FD81E20FF31F9C
:102C6000118300838F5F8A8381E0B1CFCF93DF939D
:102C7000C091C403D091C503209759F586E090E038
:102C80000E944434EC0180EE92E0998388831A829A
:102C900085E08B831D821C828AE090E00E94D6151D
:102CA0009C019D838C8390E08B81981750F4E92FD1
:102CB000F0E0EE0FFF1FE20FF31F118210829F5F03
:102CC000F3CF88EE92E099838883D093C503C093B5
:102CD000C403CE01DF91CF910895DF92EF92FF926E
:102CE0000F931F93CF93DF938C010E943616EC0154
:102CF0008B819A819817A0F135E0D32ED80E8D2DB7
:102D000090E0880F991F0E94D6157C0180E0E114A5
:102D1000F104A1F1DB823A81E32FF0E0EE0FFF1F17
:102D2000EE0DFF1D832F8D1588F08C819D81F7019D
:102D300020E0321779F0DF01AE19BF09A80FB91FE3
:102D40004D915C91419351932F5FF3CF119211926A
:102D50008F5FE9CF009711F00E94E034FD82EC8292
:102D60008A81282F30E0220F331FEC81FD81E20F92
:102D7000F31F118300838F5F8A8381E0DF91CF91FE
:102D80001F910F91FF90EF90DF900895DF92EF92E7
:102D9000FF920F931F93CF93DF93D62E0E94361688
:102DA000DC0112960C91D0E0C0E010E0C01720F5D5
:102DB0000E943616DC011496ED91FC91CE01880F2D
:102DC000991FE80FF91FE080F180D11004C0F701CE
:102DD0008581882379F08091DB039091DC03DC010D
:102DE000ED91FC9102A0F3A1E02DB7010995F70147
:102DF00015821F5F2196DACF812FDF91CF911F912E
:102E00000F91FF90EF90DF900895CF93DF93C091E3
:102E1000C203D091C303209709F057C082E190E02C
:102E20000E944434EC0188ED91E0998388831A82F2
:102E30008FE08B831D821C828EE190E00E94D6156C
:102E40009C019D838C8390E08B81981750F4E92F2F
:102E5000F0E0EE0FFF1FE20FF31F118210829F5F61
:102E6000F3CF80EE91E09983888388E792E09F8397
:102E70008E83BE01685F7F4F83EF92E099878887DA
:102E800081E08A871B8681E090E09D878C8785EAB8
:102E900093E09F878E878BE993E0998B888B809155
:102EA0000001823018F482E08093000184EA92E00D
:102EB0009F838E8384ED92E099878887CE010E945C
:102EC000DC15D093C303C093C203CE01DF91CF9131
:102ED0000895AF92BF92CF92DF92FF920F931F930C
:102EE000CF93DF935B016A01DC01ED91FC910480DB
:102EF000F581E02D0995F82E8CE090E00E94443495
:102F0000EC018C010E5F1F4F81E090E09F838E8368
:102F1000B986A886DB86CA868091000191E0980F69
:102F2000909300018C8384EA92E09983888384EDF6
:102F300092E09B838A83FD82209781F00E9405178F
:102F4000B8010E94DC15811109C0E881F981028075
:102F5000F381E02DCE010995D0E0C0E0CE01DF91F4
:102F6000CF911F910F91FF90DF90CF90BF90AF90C6
:102F70000895AF92BF92CF92DF92FF920F931F936B
:102F8000CF93DF935B016A01DC01ED91FC9104803A
:102F9000F581E02D0995F82E8CE090E00E944434F4
:102FA000EC018C010E5F1F4FB986A886DB86CA86AE
:102FB0008091000191E0980F909300018C83FD8235
:102FC0008CE392E0998388838CE692E09B838A83EA
:102FD00088E090E09F838E83209781F00E94051700
:102FE000B8010E94DC15811109C0E881F9810280D5
:102FF000F381E02DCE010995D0E0C0E0CE01DF9154
:10300000CF911F910F91FF90DF90CF90BF90AF9025
:103010000895AF92BF92CF92DF92FF920F931F93CA
:10302000CF93DF935B016A01DC01ED91FC91048099
:10303000F581E02D0995F82E8CE090E00E94443453
:10304000EC018C010E5F1F4FB986A886DB86CA860D
:103050008091000191E0980F909300018C83FD8294
:1030600080E092E09983888380E392E09B838A8367
:1030700087E090E09F838E83209781F00E94051760
:10308000B8010E94DC15811109C0E881F981028034
:10309000F381E02DCE010995D0E0C0E0CE01DF91B3
:1030A000CF911F910F91FF90DF90CF90BF90AF9085
:1030B0000895CF93DF93EB01DC01ED91FC91048047
:1030C000F581E02D09958B830E940517BE01DF91E4
:1030D000CF910C94DC15CF93DF93EB01DC01ED91E4
:1030E000FC910480F581E02D09958B830E940517E2
:1030F000BE01DF91CF910C94DC15AF92BF92CF92BD
:10310000DF92EF92FF920F931F93CF93DF938C0187
:103110005B017A0169018CE090E00E944434EC018B
:103120001B8282E090E09D838C83BF82AE82D98631
:10313000C8868091000191E0980F909300018A83E6
:1031400084EF91E099838883FB86EA862097C1F01B
:10315000D801ED91FC910480F581E02DC80109951D
:103160008B830E940517BE01DF91CF911F910F91B4
:10317000FF90EF90DF90CF90BF90AF900C94DC1554
:1031800080E0DF91CF911F910F91FF90EF90DF9042
:10319000CF90BF90AF900895CF92DF92EF92FF92C1
:1031A0000F931F93CF93DF938C016B017A018AE019
:1031B00090E00E944434EC011B8285E090E09D8306
:1031C0008C83DF82CE82F986E8868091000191E0CF
:1031D000980F909300018A8388EE91E09983888309
:1031E0002097B1F0D801ED91FC910480F581E02D9C
:1031F000C80109958B830E940517BE01DF91CF910D
:103200001F910F91FF90EF90DF90CF900C94DC1501
:1032100080E0DF91CF911F910F91FF90EF90DF90B1
:10322000CF900895EF92FF920F931F93CF93DF9368
:10323000EC01E62E0E9405178C01E881F9810480DB
:10324000F581E02DCE010995F82ED0E0C0E0D8013F
:1032500012968C911297D817D8F48D2F90E0880F82
:10326000991F1496ED91FC91E80FF91F80819181CF
:10327000FC012381F2120AC00190F081E02D06804A
:10328000F781E02D0995E81621F0CF5FDF5FDFCFF2
:10329000CFEF8C2FDF91CF911F910F91FF90EF9087
:1032A0000895FF920F931F93CF93DF938C01F62E17
:1032B0000E940517EC01D801ED91FC910480F58185
:1032C000E02DC80109956A8130E020E090E02617E2
:1032D00098F4EC81FD81A901440F551FE40FF51FFF
:1032E0000190F081E02D4381841303C0F91631F081
:1032F0009F5F2F5F3F4FEBCFF0E0E0E0CF01DF912A
:10330000CF911F910F91FF900895FF920F931F93FC
:10331000CF93DF938C01C62F0E9405176C2F0E945C
:103320004E0CEC01892B59F0FB80D801ED91FC91FA
:103330000480F581E02DC80109958F1511F0D0E0CA
:10334000C0E0CE01DF91CF911F910F91FF900895C2
:103350000F931F93CF93DF938C010E940517EC010D
:10336000D801ED91FC910480F581E02DC80109950B
:10337000982F6A8130E020E080E0261788F4EC8105
:10338000FD81A901440F551FE40FF51F0190F08145
:10339000E02D4381941301C08F5F2F5F3F4FEDCF2E
:1033A000DF91CF911F910F910895EF92FF920F93AC
:1033B0001F93CF93DF938C016FEFFC018685978578
:1033C0000E94F305EC01F801E684F7840E940517DA
:1033D000FC016281C7010E94F305C80FD91F6EEF7F
:1033E000F801868597850E94F3058C0F9D1FDF915C
:1033F000CF911F910F91FF90EF9008958F929F9220
:10340000AF92BF92CF92DF92EF920F931F93CF9321
:10341000DF93CDB7DEB7E3970FB6F894DEBF0FBEEC
:10342000CDBF6C015A0185E0E7E0F1E0DE019E9638
:1034300001900D928A95E1F7DA0112961C921E9284
:10344000119714961C921E9213971C92C6010E940B
:103450003C0BE12C05E09E01225D3F4F49E1BE019E
:103460006F5F7F4FC6010E94840A811116C080EFF2
:10347000F501808380E0E3960FB6F894DEBF0FBEBF
:10348000CDBFDF91CF911F910F91EF90DF90CF9043
:10349000BF90AF909F908F9008958981805C83301A
:1034A00008F092C08EEF8BAB4E01FAE18F0E911CAB
:1034B000E12C01E09E012D5C3F4F44E1B401C601C7
:1034C0000E94840A182F823020F480EFD5018C935B
:1034D000D1CFC6010E943C0B8A8DF50180830E94EA
:1034E00005176B8D0E944E0C009769F0D50114965C
:1034F0009C938E93139782E090E012969C938E9308
:10350000119781E0B8CFD601ED91FC9106A8F7A9FB
:10351000E02D61E373E0C6010995D601ED91FC91C0
:10352000EE5AFF4F0190F081E02DC601099563E24C
:1035300073E0F601868597850E940806D6011E96DF
:10354000AD90BC904B8D50E070E060E02AE030E040
:10355000C5010E945D1065E673E0C5010E9402107E
:1035600061E273E0F601868597850E9408065401A2
:10357000D5014D915D0150E070E060E020E1F60181
:10358000868597850E9411106CE2D6011E968D915A
:103590009C910E94F3058A2D8819811748F3D60162
:1035A000ED91FC91EC5AFF4F0190F081E02DC601A6
:1035B0000995F60186859785DC01ED91FC910680E1
:1035C000F781E02D099556CFD601ED91FC9106AC1F
:1035D000F7ADE02DA501BE016F5F7F4FC6010995D4
:1035E0004ACFCF93DF93C091C003D091C1032097FE
:1035F00001F58FE090E00E944434EC0181E090E01E
:10360000998388831A821B821D821C8219861886E0
:103610001B861A861D861C861E860E940517BC0105
:103620006A5F7F4FCE010E94F508D093C103C0931B
:10363000C003CE01DF91CF910895CF93DF930E9415
:10364000F11AEC010E940517BC016A5F7F4FCE01A1
:10365000DF91CF910C94F508CF93DF93EB010E949B
:10366000F11AFC01D187C087DF91CF910895CF92E5
:10367000DF92EF92FF920F931F93CF93DF93EC01B2
:103680000E94F11ADC011896CD90DC90B1E0CB16C7
:10369000D10409F054C08D81811118C08091DB03E1
:1036A0009091DC03DC01ED91FC9100A4F1A5E02DEB
:1036B000BE0109958091DB039091DC03DC01ED9163
:1036C000FC9100A8F1A9E02D61E00995E881F9815C
:1036D0000680F781E02DCE010995E82EF12CFE142D
:1036E000D9F1E881F9810284F385E02D6F2DCE01B7
:1036F00009958C01892B09F18091DB039091DC0302
:10370000DC01ED91FC9104A4F5A5E02DB80109952B
:10371000B1E0CB16D10489F4F80184819581813020
:10372000910519F00797029740F4D801FE91EE91A8
:10373000CD010488F589E02D0995F394D0CF8091CF
:10374000DB039091DC03DC01ED91FC9106A0F7A175
:10375000E02DBE010995BACF8D81811124C08091E1
:10376000DB039091DC03DC01ED91FC91CA94CD2840
:1037700069F402A4F3A5E02DBE01DF91CF911F9162
:103780000F91FF90EF90DF90CF90099400A8F1A9DE
:10379000E02D61E0DF91CF911F910F91FF90EF90AD
:1037A000DF90CF900994DF91CF911F910F91FF90FF
:1037B000EF90DF90CF900895CF93DF93FC012581A8
:1037C0002223C1F0EC010E9405176D810E944E0C6E
:1037D000009781F0FC01248135812130310551F4BD
:1037E000EC01229739F00E94F11ABE01DF91CF91CE
:1037F0000C94F508DF91CF9108950F931F93CF9309
:10380000DF938C010E94F11AEC0183E090E0998330
:103810008883D801ED91FC910680F781E02DC801E5
:1038200009958B83DF91CF911F910F910895EF92AE
:10383000FF920F931F93CF93DF9300D000D0CDB7AB
:10384000DEB78C017B010E94FD1BD801ED91FC913C
:103850000684F785E02DAE014F5F5F4FB701C801C9
:103860000995811112C00E94F11A21E030E0FC019B
:10387000318320830F900F900F900F90DF91CF91A5
:103880001F910F91FF90EF900895D801ED91FC9159
:103890000088F189E02DBE016F5F7F4FC801099557
:1038A000882309F3D801ED91FC910484F585E02D7E
:1038B000BE016F5F7F4FC80109958823A1F249813E
:1038C0005A816B817C81D801ED91FC910284F38552
:1038D000E02DC8010995D8011C96ED91FC91309717
:1038E00011F20995C0CFEF92FF920F931F93CF93E0
:1038F000DF931F92CDB7DEB78C017B010E94FD1BC9
:10390000D801ED91FC910684F785E02DAE014F5F63
:103910005F4FB701C801099581110FC00E94F11ACC
:1039200021E030E0FC01318320830F90DF91CF91C3
:103930001F910F91FF90EF900895D801ED91FC91A8
:103940000088F189E02DBE016F5F7F4FC8010995A6
:10395000882321F3D801ED91FC910484F585E02DB5
:10396000BE016F5F7F4FC80109958823B9F2D80166
:10397000ED91FC910284F385E02D6981C8010995E0
:10398000D8011C96ED91FC91309741F20995C6CF74
:103990000F931F93CF93DF93EC010E94F11A8C01D8
:1039A00082E090E0F80191838083E881F9810680CC
:1039B000F781E02DCE010995F8018383EA85FB8527
:1039C000309709F009950E94F11A21E030E0FC01DE
:1039D00031832083DF91CF911F910F910895CF9272
:1039E000DF92EF92FF920F931F93CF93DF938C019F
:1039F000C62E0E943616DC011296DC90DD2081F185
:103A00000E94F11AFC0180859185019729F061E7F8
:103A100073E0C8010E942911D0E0C0E0CD1500F587
:103A20000E943616DC011496ED91FC91CE01880FB0
:103A3000991FE80FF91FE080F180C11004C0F70161
:103A40008581882359F0D801ED91FC9102A0F3A162
:103A5000E02DB701C8010995F70115822196DECF47
:103A6000DF91CF911F910F91FF90EF90DF90CF905A
:103A70000895AF92BF92CF92DF92EF92FF920F9391
:103A80001F93CF93DF93EC018B01E881F981E65B13
:103A9000FF4F0190F081E02D09957C01D80114962B
:103AA000ED91FC9115973197E930F10508F03BC095
:103AB000E45AF24E0C943E34001E651DAA1D931D5F
:103AC000081E6C1D001E001E2B1EB801CE010E9498
:103AD000F114E80EF91E27C0B801665F7F4F8E858E
:103AE0009F850E94FA056C01F80184899589892BCC
:103AF000C1F046855785E881F981E25BFF4F01906F
:103B0000F081E02DB801CE0109955C01B801605F3C
:103B10007F4F8E859F850E94FA058A0D9B1DC80EDA
:103B2000D91EEC0CFD1CE881F981E45BFF4F01908C
:103B3000F081E02DB801CE0109958E0D9F1DDF911A
:103B4000CF911F910F91FF90EF90DF90CF90BF909A
:103B5000AF90089516966D917C918E859F850E94F9
:103B600008066C010E94F11AFC018085918501977D
:103B7000A1F066E673E08E859F850E9408065C01D1
:103B8000B801CE010E9493118A0D9B1DC80ED91E4B
:103B900069E28E859F850E94F305E881F981E25BE9
:103BA000FF4F0190F081E02DA601B801CE010995EB
:103BB000C80ED91ED80118966D917C9161157105BA
:103BC00099F08E859F850E940806C80ED91EE8814F
:103BD000F981E05BFF4F0190F081E02DB801CE014B
:103BE00009958C0D9D1D75CF0E94F11AFC018085F1
:103BF0009185019761F7D80116966D917C91E1CF7F
:103C0000B8010230110509F061CF60E070E05ECFCD
:103C1000F801668177818E859F850E9408066C0178
:103C2000D80118968D919C91892B09F47ACFE8815F
:103C3000F981E25BFF4F0190F081E02DA601B80110
:103C4000CE0109955C01F801608571858E859F859F
:103C50000E94080662CF16966D917C918E859F8595
:103C60000E9408066C01E881F981E25BFF4F019038
:103C7000F081E02DAC01B801CE010995C80ED91E26
:103C8000F801608571856115710509F09ACF0E9470
:103C9000F11ADC0118968D919C91019709F097CF4C
:103CA000F801668177818DCFEF92FF920F931F937A
:103CB000CF93DF938C0160EFFC01868597850E948E
:103CC000F305EC01F801E684F7840E940517FC0176
:103CD0006281C7010E94F305C80FD91F65EFF80183
:103CE000868597850E94F305C80FD91F0E94F11A97
:103CF000FC0184859585892B69F0F801E684F784B9
:103D00000E94F11AFC0164857585C7010E940806AE
:103D1000C80FD91F65EFF801868597850E94F305C6
:103D2000C80FD91F0E94F11AFC0182859385892B47
:103D300069F0F801E684F7840E94F11AFC016285BB
:103D40007385C7010E940806C80FD91F6EEFF801DE
:103D5000868597850E94F3058C0F9D1FDF91CF917B
:103D60001F910F91FF90EF900895CF93DF93EC0197
:103D70000E94F11ADC0116968D919C910E84DF85CC
:103D8000C02D60E0892B39F00E94F11ADC011696F3
:103D9000ED91FC916081CE01DF91CF910C94F30500
:103DA000CF93DF93EC0160EC8E859F850E94F30535
:103DB000CE010E94B51E82E090E0DF91CF91089580
:103DC000CF93DF93EC0160EE8E859F850E94F30513
:103DD000CE01DF91CF910C94B51E0F931F93CF931B
:103DE000DF93EC018E859F850E9405110E851F854E
:103DF0000E94F11ADC011496ED91FC9160857185A9
:103E0000C8010E9408066EE38E859F85DF91CF91E1
:103E10001F910F910C94F305CF93DF93EC0180E198
:103E200090E0209771F50E944434FC0113821282C5
:103E300088EE93E0A0E0B0E084839583A683B78307
:103E40001586148680E196E09787868780E395E75C
:103E5000A0E0B0E08093140690931506A093160698
:103E6000B093170686E191E091838083F093DC03A1
:103E7000E093DB038091DB039091DC03DF91CF9132
:103E800008950E944434FC011382128288EE93E06C
:103E9000A0E0B0E084839583A683B783D587C487E9
:103EA00080E196E09787868780E395E7A0E0B0E021
:103EB0008093140690931506A0931606B0931706E8
:103EC00080E791E0D1CFCF93DF93E091DB03F091D6
:103ED000DC03309791F0C485D5850E94F11ADC018E
:103EE00018968D919C91C817D90739F48091DB03FE
:103EF0009091DC03DF91CF9108958091DB03909145
:103F0000DC03009739F0DC01ED91FC910088F18928
:103F1000E02D09951092DC031092DB03C091B306EB
:103F2000D091B4060E94F11ABE01FC0180859185F2
:103F3000DF91CF910C940C1FCF93DF93EC010E9483
:103F4000631FBE01DF91CF910C942911CF93DF93B2
:103F5000EC010E94631FBE01DF91CF910C942911E7
:103F60000E94F11AFC0126852F7726870E94F11AFC
:103F7000FC0126852E7F26871092AF061092B00690
:103F80001092B1061092B2068DEA96E00E941D1BB7
:103F90000E94631F61E876E00C9429118AE690E0A4
:103FA0000E949C1F0C94B01FCF93DF93EC010E94E2
:103FB000631FBE01DF91CF910C940806CF92DF9270
:103FC000EF92FF920F931F93CF93DF936B017C01CE
:103FD0000E94631FEC012AE030E0B701A6010E94B5
:103FE0005D108C0165E673E0CE010E940210800F27
:103FF000911FDF91CF911F910F91FF90EF90DF9074
:10400000CF900895BF92CF92DF92EF92FF920F93DD
:104010001F93CF93DF93C091D103D091D2038E0130
:1040200008521E4FC8010E94E3108823F1F0219628
:1040300089E3C82E84E0D82ECE010E94D510F60167
:10404000B1906F019E012F5F3F4F7901B81649F083
:10405000C9010E94E310882321F06B2DCE010E943C
:10406000DC32E7010E151F0539F7DF91CF911F9163
:104070000F91FF90EF90DF90CF90BF9008958BE964
:1040800090E00E94D41F80914704811106C084E90A
:1040900090E00E949C1F0C94022088E990E0F9CFE8
:1040A00083EB90E00E94D41F6091580470915904F2
:1040B00080915A0490915B040E94DE1F0C940220B0
:1040C0008AEC90E00E94D41F60916C0470916D04A2
:1040D00080916E0490916F040E94DE1F0C94022068
:1040E00080E091E00E94D41F60918004709181046F
:1040F00080918204909183040E94DE1F0C94022020
:104100008AE191E00E94D41F60919404709195041B
:1041100080919604909197040E94DE1F0C940220D7
:104120008BE391E00E94D41F8091A804811106C006
:1041300084E391E00E949C1F0C94022088E391E0AC
:10414000F9CF83E591E00E94D41F6091B90470918A
:10415000BA048091BB049091BC040E94DE1F0C94B1
:1041600002208AE691E00E94D41F6091CD047091F4
:10417000CE048091CF049091D0040E94DE1F0C9455
:10418000022080EA91E00E94D41F6091E1047091C6
:10419000E2048091E3049091E4040E94DE1F0C94F9
:1041A00002208AEB91E00E94D41F6091F504709187
:1041B000F6048091F7049091F8040E94DE1F0C949D
:1041C00002208BED91E00E94D41F8091090581119E
:1041D00006C084ED91E00E949C1F0C94022088EDA3
:1041E00091E0F9CF83EF91E00E94D41F60911A050E
:1041F00070911B0580911C0590911D050E94DE1F8A
:104200000C9402208AE092E00E94D41F60912E0557
:1042100070912F0580913005909131050E94DE1F2D
:104220000C94022080E492E00E94D41F6091420529
:104230007091430580914405909145050E94DE1FD1
:104240000C9402208AE592E00E94D41F60915605EA
:104250007091570580915805909159050E94DE1F75
:104260000C94022084E792E00E94D41F60916A05BA
:1042700070916B0580916C0590916D050E94DE1F19
:104280000C94022089E892E00E94D41F60917E0580
:1042900070917F0580918005909181050E94DE1FBD
:1042A0000C9402208EE992E00E94D41F6091920546
:1042B0007091930580919405909195050E94DE1F61
:1042C0000C94022083EB92E00E94D41F6091A6051B
:1042D0007091A7058091A8059091A9050E94DE1F05
:1042E0000C94022088EC92E00E94D41F6091BA05E1
:1042F0007091BB058091BC059091BD050E94DE1FA9
:104300000C9402208DED92E00E94D41F6091CE05A6
:104310007091CF058091D0059091D1050E94DE1F4C
:104320000C94022080EE90E00E94D41F6091E20580
:104330007091E3058091E4059091E5050E94DE1FF0
:104340000C94022080E891E00E94D41F6091F60551
:104350007091F7058091F8059091F9050E94DE1F94
:104360000C94022080E292E00E94D41F60910A0621
:1043700070910B0680910C0690910D060E94DE1F35
:104380000C9402208AE790E00E949C1FC091D10308
:10439000D091D203CE0101960E94E310882321F030
:1043A00060E0CE010E94DC3268EC70E080E090E0DA
:1043B0000E94DB07F894A89514BE88E18093600002
:1043C0008CE080936000789460ED77E080E090E08E
:1043D0000E94DB07FFCF0E9426360F931F93CF93D7
:1043E000DF93EC0188819981009759F02A813B8104
:1043F0002617370730F081E0DF91CF911F910F91A1
:1044000008958B016F5F7F4F0E946935009759F0C7
:10441000998388831B830A832C813D81232B59F741
:10442000FC011082E8CF80E0E7CFAF92BF92CF923D
:10443000DF92EF92FF920F931F93CF93DF9300D001
:1044400000D000D0CDB7DEB75C016B010E94973180
:104450007C01F60101900020E9F731978F010C19DA
:104460001D098017910708F48C011A8219821C8299
:104470001B821E821D82A114B10459F0B701CE0126
:1044800001960E94ED21811127C0CE0101960E9464
:10449000940FE980FA80A801B601C7010E94423654
:1044A00011E0892B09F010E0E114F10419F0C701C3
:1044B0000E94E034812F26960FB6F894DEBF0FBE1F
:1044C000CDBFDF91CF911F910F91FF90EF90DF90C3
:1044D000CF90BF90AF900895FE82ED82B5018981A3
:1044E0009A810E949031D5CFCF92DF92EF92FF92C6
:1044F0000F931F93CF93DF93EC016B010E9405177D
:104500007C01E881F9810480F581E02DCE010995D7
:10451000082F10E0D70112968C911297181708F502
:10452000812F90E0880F991F1496ED91FC91E80F70
:10453000F91FC081D1818B81081711F01F5FEACF6D
:10454000B6018E819F810E9415228823B9F3CE0186
:10455000DF91CF911F910F91FF90EF90DF90CF905F
:104560000895D0E0C0E0F3CF8F929F92AF92BF92B8
:10457000CF92DF92EF92FF920F931F93CF93DF932F
:10458000CDB7DEB76C970FB6F894DEBF0FBECDBFC8
:104590007C016B018A0185E090E09A83898384E63F
:1045A00093E09C838B8381E090E09E838D8381E602
:1045B00093E098878F8387E090E09A8789878CE5DE
:1045C00093E09C878B8783E090E09E878D8786E5CC
:1045D00093E0988B8F8782E090E09A8B898B80E5BF
:1045E00093E09C8B8B8B86E090E09E8B8D8B8BE495
:1045F00093E0988F8F8B1A8E198E1C8E1B8EA12C98
:1046000084E0A89EF001112481E090E08C0F9D1FB2
:10461000E80FF91F808091808114910441F1B60167
:10462000828193810E941522B82E8823F1F0F8012F
:104630009482838281E090E092838183C7010E940B
:104640003C0B8B2D6C960FB6F894DEBF0FBECDBF22
:10465000DF91CF911F910F91FF90EF90DF90CF905E
:10466000BF90AF909F908F900895A394C9CFB12C25
:10467000E8CF6F927F928F929F92AF92BF92CF922C
:10468000DF92EF92FF920F931F93CF93DF937C0102
:10469000C62F6A01DA0112961C921E921197149687
:1046A0001C921E9213971C920E9405176C2F0E9459
:1046B0004E0C009711F410E09DC0FC01248135815F
:1046C00021303105C1F78C0102501109A1F3D80145
:1046D000ED91FC910680F781E02DC8010995C82F66
:1046E000882309F4B1C0612C94E0792ED801ED91B2
:1046F000FC910284F385E02D662DC8010995009791
:10470000A9F0FC01248135812430310530F02730B7
:10471000310560F02930310549F0DC0116968D91A4
:104720009C910E949731781608F4782E6394C611F4
:10473000DDCFA72CB12C4501B6E08B0E911CC40136
:104740000E94D615EC01009741F462EF72E0F70188
:10475000868597850E942911AECFA40170E060E0A4
:104760000E943436D701ED91FC9104ACF5ADE02DFB
:1047700020E045E0470DBE01C7010995882309F4F3
:104780007DC0BFEFAB1ABB0AFE01EA0DFB1D829193
:10479000982F9F7D21F08D3011F08A3011F5108215
:1047A00080E07A9491E0791611F0882381F3712CDE
:1047B00082E0882E912CD60111968D919C917614D1
:1047C00090F4892B99F4D801ED91FC910284F38542
:1047D000E02D672DC80109955C010097D9F4739409
:1047E000EACF81E0DECF892B09F44CC0CE010E94D4
:1047F000E03411E0812FDF91CF911F910F91FF9055
:10480000EF90DF90CF90BF90AF909F908F907F9070
:104810006F900895FC01848195818430910528F082
:1048200087309105E0F20997D1F2BE01D5011696C5
:104830008D919C910E941522882389F2F601B48201
:10484000A38292828182B7CF8AE090E00E94D6153F
:10485000EC01892B09F42FCF8AE0DE011D928A95A5
:10486000E9F7D701ED91FC9104ACF5ADE02D20E026
:1048700049E0BE01C7010995811104C0CE010E9423
:10488000E03419CFD701ED91FC9106ACF7ADE02DE6
:10489000A601BE01C7010995182FCE010E94E03480
:1048A000A9CF9F92AF92BF92CF92DF92EF92FF92E9
:1048B0000F931F93CF93DF93CDB7DEB7E3970FB678
:1048C000F894DEBF0FBECDBF7C0169011BAADC01DD
:1048D000ED91FC9104ACF5ADE02D20E042E3CE017A
:1048E00001965C01BC01C7010995982E8823E1F06F
:1048F000F50101900020E9F731978F010A191B0992
:10490000B801C6010E94ED21811121C0C6010E949B
:10491000940FB0E3B91540F4D701ED91FC910680F6
:10492000F781E02DC701099581E0E3960FB6F89471
:10493000DEBF0FBECDBFDF91CF911F910F91FF90D2
:10494000EF90DF90CF90BF90AF909F900895D601E9
:1049500015961C930E931497B5018D919C910E940E
:104960003B36D7CF1F920F920FB60F9211242F9381
:104970003F934F935F936F937F938F939F93AF93E7
:10498000BF93EF93FF9380E196E00E94AA06FF9108
:10499000EF91BF91AF919F918F917F916F915F91B7
:1049A0004F913F912F910F900FBE0F901F90189530
:1049B0001F920F920FB60F9211242F938F939F93F4
:1049C000EF93FF93E0912006F09121068081E09122
:1049D0002606F091270682FD1BC090818091290652
:1049E0008F5F8F7320912A06821741F0E09129068C
:1049F000F0E0E05FF94F958F80932906FF91EF91EA
:104A00009F918F912F910F900FBE0F901F9018952F
:104A10008081F4CF1F920F920FB60F9211242F9323
:104A20003F938F939F93AF93BF938091C7039091D0
:104A3000C803A091C903B091CA033091C60323E013
:104A4000230F2D3758F50196A11DB11D2093C603E4
:104A50008093C7039093C803A093C903B093CA037C
:104A60008091CB039091CC03A091CD03B091CE0364
:104A70000196A11DB11D8093CB039093CC03A0930D
:104A8000CD03B093CE03BF91AF919F918F913F9192
:104A90002F910F900FBE0F901F90189526E8230FAF
:104AA0000296A11DB11DD2CFFC01138289E090E0D6
:104AB0009583848377836683518740878091000143
:104AC00091E0980F9093000182838FEF92E09183A1
:104AD000808381E090E0938782871486168615860E
:104AE000108A1786128A118A148A138A08950F93DE
:104AF0001F93FC01138283E090E0958384835783A6
:104B00004683318720878091000191E0980F909330
:104B1000000182838AEC91E09183808373876287AE
:104B2000158704871F910F9108952F923F924F92FE
:104B30005F926F927F928F929F92AF92BF92CF922D
:104B4000DF92EF92FF920F931F93CF93DF93E0E1F9
:104B5000F6E01382128288EE93E0A0E0B0E0848356
:104B60009583A683B7838BE093E09183808385EC64
:104B700090E09587848784EC90E09787868780EC27
:104B800090E0918B808B81EC90E0938B828B82EC18
:104B900090E0958B848B86EC90E0978B868B118EC2
:104BA000128E138E148E84E690E09093E00380932F
:104BB000DF03ADEAB6E081E693E011969C938E9315
:104BC00012961D921D921D921C9215971796FC939A
:104BD000EE93169719961C921E9218971A961D928C
:104BE0001D921D921C921D9784EF91E01F969C933D
:104BF0008E931E9788EA91E651969C938E935097D8
:104C00008AE052968C930FE310E230E020E04DEF03
:104C10005AE063E070E089E394E00E94772589E33D
:104C2000E82E84E0F82EE1E0D7011E96EC931E9763
:104C300050961C921E921F979BE4292E93E0392ECA
:104C40002D923C9200E510E222ED3AE04EEE5AE061
:104C500064E070E08AE494E00E9477252AE5422E21
:104C6000512C612C712CD7015F964D925D926D9203
:104C70007C92929794961C921E929397C5E3D3E0F0
:104C80005296DC93CE93519700E610E226EA3AE082
:104C900044EC5AE064E070E08EE594E00E947725F1
:104CA0003EE0832E912CA12CB12CF70183AA94AA6B
:104CB000A5AAB6AA10AE17AAD6A3C5A300E710E20C
:104CC00027E73AE044E95AE064E070E082E794E0E4
:104CD0000E94772580E390E0A0E0B0E0809380041C
:104CE00090938104A0938204B0938304109285046E
:104CF00010928404D701DA96DC93CE93D99700E81A
:104D000010E227E43AE045E65AE064E070E086E825
:104D100094E00E94772548E0C42ED12CE12CF12CA0
:104D2000C0929404D0929504E0929604F092970475
:104D30001092990410929804D0938704C09386042B
:104D400000E910E230E020E047E35AE063E070E081
:104D50008AE994E00E9477251092A8041092AA0490
:104D60001092A90430929B0420929A0401EA10E266
:104D70002CE03AE048E25AE064E070E08BEA94E02C
:104D80000E9477254092B9045092BA046092BB0405
:104D90007092BC041092BE041092BD04D093AC0477
:104DA000C093AB0401EB10E220EE39E04EEF59E086
:104DB00064E070E08FEB94E00E9477258092CD0450
:104DC0009092CE04A092CF04B092D0041092D2045C
:104DD0001092D104D093C004C093BF0401EC10E240
:104DE00021EB39E04EEC59E064E070E083ED94E0B3
:104DF0000E94772580E390E0A0E0B0E08093E1049A
:104E00009093E204A093E304B093E4041092E604C8
:104E10001092E504D093D404C093D30401ED10E2C2
:104E200021E839E04FE959E064E070E087EE94E072
:104E30000E947725C092F504D092F604E092F70420
:104E4000F092F8041092FA041092F904D093E80456
:104E5000C093E70401EE10E230E020E041E759E0C2
:104E600063E070E08BEF94E00E94772510920905D3
:104E700010920B0510920A053092FC042092FB045C
:104E800002EF10E226E439E042E659E064E070E027
:104E90008CE095E00E94772540921A0550921B0500
:104EA00060921C0570921D0510921F0510921E0540
:104EB000D0930D05C0930C0502E011E22AE139E020
:104EC00048E359E064E070E080E295E00E947725D5
:104ED00080922E0590922F05A0923005B092310558
:104EE0001092330510923205D0932105C09320050E
:104EF00002E111E22BEE38E048E059E064E070E0B6
:104F000084E395E00E94772580E390E0A0E0B0E0A4
:104F10008093420590934305A0934405B0934505C3
:104F20001092470510924605D0933505C09334057D
:104F300002E211E22BEB38E049ED58E064E070E06A
:104F400088E495E00E947725C0925605D0925705D7
:104F5000E0925805F092590510925B0510925A059F
:104F6000D0934905C093480502E311E228E938E0EF
:104F70004EEA58E064E070E08CE595E00E94772509
:104F800055E5452E512C612C712C40926A055092AA
:104F90006B0560926C0570926D0510926F05109212
:104FA0006E05D0935D05C0935C0502E411E223E732
:104FB00038E04BE858E064E070E080E795E00E945C
:104FC000772564E9862E62E0962EA12CB12C809282
:104FD0007E0590927F05A0928005B0928105109287
:104FE000830510928205D0937105C093700502E588
:104FF00011E220E538E046E658E064E070E084E83D
:1050000095E00E9477254092920550929305609218
:105010009405709295051092970510929605D0937D
:105020008505C093840502E611E22BE238E043E4F3
:1050300058E064E070E088E995E00E94772580926E
:10504000A6059092A705A092A805B092A905109276
:10505000AB051092AA05D0939905C093980502E775
:1050600011E228E038E04EE158E064E070E08CEABC
:1050700095E00E9477254092BA055092BB05609258
:10508000BC057092BD051092BF051092BE05D0936D
:10509000AD05C093AC0502E811E223EE37E04BEF1B
:1050A00057E064E070E080EC95E00E947725809204
:1050B000CE059092CF05A092D005B092D105109266
:1050C000D3051092D205D093C105C093C00502E963
:1050D00011E22BEA37E04BEC57E064E070E084ED3E
:1050E00095E00E94772578E0872E77E0972EA12C17
:1050F000B12C8092E2059092E305A092E405B09273
:10510000E5051092E7051092E605D093D505C0930A
:10511000D40502EA11E223E737E043E957E064E00F
:1051200070E088EE95E00E9477258092F6059092D7
:10513000F705A092F805B092F9051092FB051092C0
:10514000FA05D093E905C093E80502EB11E22BE3E1
:1051500037E04BE557E064E070E08CEF95E00E94AB
:10516000772580920A0690920B06A0920C06B092C8
:105170000D0610920F0610920E06D093FD05C093F7
:10518000FC05E1E2F4E083E397E09483838391E01C
:1051900095838091E10382831782168229E233E0AE
:1051A000318320834BE257E0548743879587980FDC
:1051B0009287178616863187208743E257E0548B03
:1051C000438BA1E0A58B93E0980F9093E1038E5F52
:1051D000828B178A168A318B208B4CEF56E06BE15D
:1051E00077E082EE93E00E945425C2EED3E00DE119
:1051F00013E01983088345ED56E064EF76E087EF0E
:1052000093E00E9454251E8B0D8B4EEA56E06DEC08
:1052100076E08CE094E00E9454251BA70AA7E3E205
:10522000F7E08CE297E09183808384E082831086AC
:105230001782AEE1B7E01196FC93EE938DE09BE010
:1052400013969C938E93129780E814968C931497E0
:10525000B0931D07A0931C07F0931B07E0931A0758
:10526000E0ECF6E0148A158A168A178A108E118EE1
:10527000128E138E158E148E12AA13AA14AA15AAB2
:1052800016AA17AA10AE11AE13AE12AE10921007E6
:105290001092110710921207109213071092140720
:1052A00010921507109216071092170710921907FF
:1052B00010921807DF91CF911F910F91FF90EF90FF
:1052C000DF90CF90BF90AF909F908F907F906F9026
:1052D0005F904F903F902F900895CF93DF9300D031
:1052E00000D01F92CDB7DEB7789484B5826084BDBC
:1052F00084B5816084BD85B5826085BD85B58160DA
:1053000085BD80916E00816080936E001092810057
:105310008091810082608093810080918100816012
:1053200080938100809180008160809380008091D3
:10533000B10084608093B1008091B000816080935F
:10534000B00080917A00846080937A0080917A0026
:10535000826080937A0080917A00816080937A00E5
:1053600080917A00806880937A001092C100409802
:105370005F980E94230E0E941D0E8FEF80932607D8
:1053800081E080932807ECE2F7E094E0DF011D92D2
:105390009A95E9F7809330071092310712E0109345
:1053A000270761E082E00E94850761E083E00E94B8
:1053B000850761E084E00E94850760E08FE00E943D
:1053C000850760E080E10E94850760E081E10E943E
:1053D000850761E088E00E94850761E089E00E941E
:1053E000850761E08AE00E9485070E94F11A23E4A4
:1053F00036E0FC01338722876091B3067091B406D2
:1054000090E080E00E940C1F892B59F1E091B306D7
:10541000F091B406A089B1891C93A089B1891C922E
:10542000A485B5851C92A685B78580E18C93108EE6
:10543000A489B58986E08C93A289B3898C91806117
:105440008C93A289B3898C9188608C93A289B3894B
:105450008C9180688C930288F389E02D80818F7D08
:10546000808380E395E79093BE068093BD068AE033
:105470008093BF060E94F11A28E136E0DC011D96F8
:105480003C932E931C978FEB95E19093B6068093F7
:10549000B50684EF91E09093BC068093BB0681E251
:1054A00094E00E946D1689E294E00E946D1681E3FB
:1054B00094E00E946D16E091EE03E43068F481E020
:1054C0008E0F8093EE03F0E0EE0FFF1FEE51FC4FC6
:1054D00081E294E096878587E0910304E43068F4E4
:1054E00081E08E0F80930304F0E0EE0FFF1FE15187
:1054F000FC4F89E294E0968B858BE0911804E430B0
:1055000068F481E08E0F80931804F0E0EE0FFF1F27
:10551000EE51FC4F81E394E090AF87AB0E940517FA
:105520007C018C010A5F1F4F8DEF95E009F449C0A3
:10553000D7011696ED91FC9102A0F3A1E02D50E069
:1055400040E064EF75E0C80109953C01892B59F4EE
:105550008DED95E00E949C1F68EE73E080E090E086
:105560000E94DB07F5CFD7011696ED91FC9102A0C2
:10557000F3A1E02D46EB55E061ED75E0C80109951A
:105580005C01892B59F48DED95E00E949C1F68EE1B
:1055900073E080E090E00E94DB07F5CFD70116961C
:1055A000ED91FC91068CF78DE02D30E020E04EEC83
:1055B0005FE161EB75E0C801099581110FC08DE9CC
:1055C00095E00E94A61F83E596E00E949C1F68EE6E
:1055D00073E080E090E00E94DB07F5CFD301ED910E
:1055E000FC9104A0F5A1E02D50E040E064E975E0F5
:1055F000C30109956C01892B59F48DED95E00E944A
:105600009C1F68EE73E080E090E00E94DB07F5CF1E
:10561000D301ED91FC9104A0F5A1E02D50E040E014
:105620006BE875E0C30109957C01892B59F48DED78
:1056300095E00E949C1F68EE73E080E090E00E947D
:10564000DB07F5CFD301ED91FC9104A0F5A1E02D8E
:1056500050E040E062E875E0C30109958C01892BB8
:1056600059F48DED95E00E949C1F68EE73E080E098
:1056700090E00E94DB07F5CFD301ED91FC91068C01
:10568000F78DE02D24E535E042EC51E263E775E06B
:10569000C3010995882309F492CFD601ED91FC91BD
:1056A00000A0F1A1E02D69E374E0C601099588230B
:1056B00009F485CFD601ED91FC9100A0F1A1E02D78
:1056C0006AE474E0C6010995882309F478CFD6010D
:1056D000ED91FC9100A0F1A1E02D6EE574E0C60112
:1056E0000995882309F46BCFD601ED91FC9100A0B8
:1056F000F1A1E02D64ED75E0C6010995882309F458
:105700005ECFD601ED91FC9100A0F1A1E02D62E702
:1057100074E0C6010995882309F451CFD601ED91B3
:10572000FC9100A0F1A1E02D66E874E0C6010995A6
:10573000882309F444CFD701ED91FC9100A0F1A199
:10574000E02D6AE974E0C7010995882309F437CF91
:10575000D701ED91FC9100A0F1A1E02D6BEA74E07E
:10576000C7010995882309F42ACFD701ED91FC914F
:1057700000A0F1A1E02D6FEB74E0C701099588232B
:1057800009F41DCFD701ED91FC9100A0F1A1E02D0E
:1057900068EE75E0C7010995882309F410CFD70199
:1057A000ED91FC9100A0F1A1E02D63ED74E0C70143
:1057B0000995882309F403CFD701ED91FC9100A04E
:1057C000F1A1E02D67EE74E0C7010995882309F483
:1057D000F6CED801ED91FC9100A0F1A1E02D6BEF88
:1057E00074E0C8010995882309F4E9CED801ED9148
:1057F000FC9100A0F1A1E02D6CE075E0C8010995D5
:10580000882309F4DCCED801ED91FC9100A0F1A130
:10581000E02D60E275E0C8010995882309F4CFCE38
:10582000D801ED91FC9100A0F1A1E02D6CEF75E0A5
:10583000C8010995882309F4C2CED801ED91FC91E5
:1058400000A0F1A1E02D64E375E0C801099588236B
:1058500009F4B5CED801ED91FC9100A0F1A1E02DA5
:1058600068E475E0C8010995882309F4A8CED5013C
:10587000ED91FC91048CF58DE02D44E255E068E457
:1058800075E0C5010995882309F499CED501ED91FC
:10589000FC9104A0F5A1E02D45EF54E061E175E035
:1058A000C50109956C01892B59F48DED95E00E9495
:1058B0009C1F68EE73E080E090E00E94DB07F5CF6C
:1058C000D501ED91FC9104A0F5A1E02D46EC54E04A
:1058D00062EE74E0C50109957C01892B59F48DEDC8
:1058E00095E00E949C1F68EE73E080E090E00E94CB
:1058F000DB07F5CFD501ED91FC9104A0F5A1E02DDA
:1059000047E954E063EB74E0C50109958C01892BEC
:1059100059F48DED95E00E949C1F68EE73E080E0E5
:1059200090E00E94DB07F5CFD601ED91FC91048C4D
:10593000F58DE02D41E654E062E874E0C60109957A
:10594000882309F43CCED601ED91FC91028CF38DB5
:10595000E02D62EE73E0C6010995882309F42FCE8D
:10596000D601ED91FC9100A0F1A1E02D6CE575E070
:10597000C6010995882309F422CED601ED91FC9148
:1059800000A0F1A1E02D60E775E0C601099588232C
:1059900009F415CED701ED91FC91048CF58DE02D25
:1059A0004DE254E06EE474E0C7010995882309F4E0
:1059B00006CED701ED91FC91028CF38DE02D67EFBF
:1059C00073E0C7010995882309F4F9CDD701ED915A
:1059D000FC9100A0F1A1E02D64E875E0C7010995F4
:1059E000882309F4ECCDD701ED91FC9100A0F1A141
:1059F000E02D68E975E0C7010995882309F4DFCD3A
:105A0000D801ED91FC91048CF58DE02D49EF53E028
:105A10006AE174E0C8010995882309F4D0CDD80162
:105A2000ED91FC91028CF38DE02D6CE074E0C801E7
:105A30000995882309F4C3CDD801ED91FC9100A00C
:105A4000F1A1E02D6CEA75E0C8010995882309F4FD
:105A5000B6CDD801ED91FC9100A0F1A1E02D60EC54
:105A600075E0C8010995882309F4A9CD0091CF03F9
:105A70001091D003C80101969093D0038093CF0377
:105A8000813092403CF088E693E00E94C21011956C
:105A9000019511091093D2030093D103C8010E940C
:105AA000D5100091D1031091D203813009F4F9C1CE
:105AB0007801EFEFEE1AFE0AC7010E94E310882377
:105AC00071F0C8010E94D510813049F0C7010E94D1
:105AD000E310882321F061E0C8010E94DC320E94BB
